{
  "_format": "hh-sol-artifact-1",
  "contractName": "ECDSAStakeRegistry",
  "sourceName": "eigenlayer/src/unaudited/ECDSAStakeRegistry.sol",
  "abi": [
    {
      "inputs": [
        {
          "internalType": "contract IDelegationManager",
          "name": "_delegationManager",
          "type": "address"
        }
      ],
      "stateMutability": "nonpayable",
      "type": "constructor"
    },
    {
      "inputs": [],
      "name": "InsufficientSignedStake",
      "type": "error"
    },
    {
      "inputs": [],
      "name": "InsufficientWeight",
      "type": "error"
    },
    {
      "inputs": [],
      "name": "InvalidLength",
      "type": "error"
    },
    {
      "inputs": [],
      "name": "InvalidQuorum",
      "type": "error"
    },
    {
      "inputs": [],
      "name": "InvalidReferenceBlock",
      "type": "error"
    },
    {
      "inputs": [],
      "name": "InvalidSignature",
      "type": "error"
    },
    {
      "inputs": [],
      "name": "InvalidSignedWeight",
      "type": "error"
    },
    {
      "inputs": [],
      "name": "InvalidThreshold",
      "type": "error"
    },
    {
      "inputs": [],
      "name": "LengthMismatch",
      "type": "error"
    },
    {
      "inputs": [],
      "name": "MustUpdateAllOperators",
      "type": "error"
    },
    {
      "inputs": [],
      "name": "NotSorted",
      "type": "error"
    },
    {
      "inputs": [],
      "name": "OperatorAlreadyRegistered",
      "type": "error"
    },
    {
      "inputs": [],
      "name": "OperatorNotRegistered",
      "type": "error"
    },
    {
      "anonymous": false,
      "inputs": [
        {
          "indexed": false,
          "internalType": "uint8",
          "name": "version",
          "type": "uint8"
        }
      ],
      "name": "Initialized",
      "type": "event"
    },
    {
      "anonymous": false,
      "inputs": [
        {
          "indexed": false,
          "internalType": "uint256",
          "name": "_old",
          "type": "uint256"
        },
        {
          "indexed": false,
          "internalType": "uint256",
          "name": "_new",
          "type": "uint256"
        }
      ],
      "name": "MinimumWeightUpdated",
      "type": "event"
    },
    {
      "anonymous": false,
      "inputs": [
        {
          "indexed": true,
          "internalType": "address",
          "name": "_operator",
          "type": "address"
        },
        {
          "indexed": true,
          "internalType": "address",
          "name": "_avs",
          "type": "address"
        }
      ],
      "name": "OperatorDeregistered",
      "type": "event"
    },
    {
      "anonymous": false,
      "inputs": [
        {
          "indexed": true,
          "internalType": "address",
          "name": "_operator",
          "type": "address"
        },
        {
          "indexed": true,
          "internalType": "address",
          "name": "_avs",
          "type": "address"
        }
      ],
      "name": "OperatorRegistered",
      "type": "event"
    },
    {
      "anonymous": false,
      "inputs": [
        {
          "indexed": true,
          "internalType": "address",
          "name": "_operator",
          "type": "address"
        },
        {
          "indexed": false,
          "internalType": "uint256",
          "name": "oldWeight",
          "type": "uint256"
        },
        {
          "indexed": false,
          "internalType": "uint256",
          "name": "newWeight",
          "type": "uint256"
        }
      ],
      "name": "OperatorWeightUpdated",
      "type": "event"
    },
    {
      "anonymous": false,
      "inputs": [
        {
          "indexed": true,
          "internalType": "address",
          "name": "previousOwner",
          "type": "address"
        },
        {
          "indexed": true,
          "internalType": "address",
          "name": "newOwner",
          "type": "address"
        }
      ],
      "name": "OwnershipTransferred",
      "type": "event"
    },
    {
      "anonymous": false,
      "inputs": [
        {
          "components": [
            {
              "components": [
                {
                  "internalType": "contract IStrategy",
                  "name": "strategy",
                  "type": "address"
                },
                {
                  "internalType": "uint96",
                  "name": "multiplier",
                  "type": "uint96"
                }
              ],
              "internalType": "struct StrategyParams[]",
              "name": "strategies",
              "type": "tuple[]"
            }
          ],
          "indexed": false,
          "internalType": "struct Quorum",
          "name": "_old",
          "type": "tuple"
        },
        {
          "components": [
            {
              "components": [
                {
                  "internalType": "contract IStrategy",
                  "name": "strategy",
                  "type": "address"
                },
                {
                  "internalType": "uint96",
                  "name": "multiplier",
                  "type": "uint96"
                }
              ],
              "internalType": "struct StrategyParams[]",
              "name": "strategies",
              "type": "tuple[]"
            }
          ],
          "indexed": false,
          "internalType": "struct Quorum",
          "name": "_new",
          "type": "tuple"
        }
      ],
      "name": "QuorumUpdated",
      "type": "event"
    },
    {
      "anonymous": false,
      "inputs": [
        {
          "indexed": true,
          "internalType": "address",
          "name": "operator",
          "type": "address"
        },
        {
          "indexed": true,
          "internalType": "uint256",
          "name": "updateBlock",
          "type": "uint256"
        },
        {
          "indexed": true,
          "internalType": "address",
          "name": "newSigningKey",
          "type": "address"
        },
        {
          "indexed": false,
          "internalType": "address",
          "name": "oldSigningKey",
          "type": "address"
        }
      ],
      "name": "SigningKeyUpdate",
      "type": "event"
    },
    {
      "anonymous": false,
      "inputs": [
        {
          "indexed": false,
          "internalType": "uint256",
          "name": "_thresholdWeight",
          "type": "uint256"
        }
      ],
      "name": "ThresholdWeightUpdated",
      "type": "event"
    },
    {
      "anonymous": false,
      "inputs": [
        {
          "indexed": false,
          "internalType": "uint256",
          "name": "oldTotalWeight",
          "type": "uint256"
        },
        {
          "indexed": false,
          "internalType": "uint256",
          "name": "newTotalWeight",
          "type": "uint256"
        }
      ],
      "name": "TotalWeightUpdated",
      "type": "event"
    },
    {
      "anonymous": false,
      "inputs": [
        {
          "indexed": false,
          "internalType": "uint256",
          "name": "oldMinimumWeight",
          "type": "uint256"
        },
        {
          "indexed": false,
          "internalType": "uint256",
          "name": "newMinimumWeight",
          "type": "uint256"
        }
      ],
      "name": "UpdateMinimumWeight",
      "type": "event"
    },
    {
      "inputs": [],
      "name": "deregisterOperator",
      "outputs": [],
      "stateMutability": "nonpayable",
      "type": "function"
    },
    {
      "inputs": [
        {
          "internalType": "address",
          "name": "_operator",
          "type": "address"
        }
      ],
      "name": "getLastCheckpointOperatorWeight",
      "outputs": [
        {
          "internalType": "uint256",
          "name": "",
          "type": "uint256"
        }
      ],
      "stateMutability": "view",
      "type": "function"
    },
    {
      "inputs": [],
      "name": "getLastCheckpointThresholdWeight",
      "outputs": [
        {
          "internalType": "uint256",
          "name": "",
          "type": "uint256"
        }
      ],
      "stateMutability": "view",
      "type": "function"
    },
    {
      "inputs": [
        {
          "internalType": "uint32",
          "name": "_blockNumber",
          "type": "uint32"
        }
      ],
      "name": "getLastCheckpointThresholdWeightAtBlock",
      "outputs": [
        {
          "internalType": "uint256",
          "name": "",
          "type": "uint256"
        }
      ],
      "stateMutability": "view",
      "type": "function"
    },
    {
      "inputs": [],
      "name": "getLastCheckpointTotalWeight",
      "outputs": [
        {
          "internalType": "uint256",
          "name": "",
          "type": "uint256"
        }
      ],
      "stateMutability": "view",
      "type": "function"
    },
    {
      "inputs": [
        {
          "internalType": "uint32",
          "name": "_blockNumber",
          "type": "uint32"
        }
      ],
      "name": "getLastCheckpointTotalWeightAtBlock",
      "outputs": [
        {
          "internalType": "uint256",
          "name": "",
          "type": "uint256"
        }
      ],
      "stateMutability": "view",
      "type": "function"
    },
    {
      "inputs": [
        {
          "internalType": "address",
          "name": "_operator",
          "type": "address"
        }
      ],
      "name": "getLastestOperatorSigningKey",
      "outputs": [
        {
          "internalType": "address",
          "name": "",
          "type": "address"
        }
      ],
      "stateMutability": "view",
      "type": "function"
    },
    {
      "inputs": [
        {
          "internalType": "address",
          "name": "_operator",
          "type": "address"
        },
        {
          "internalType": "uint256",
          "name": "_blockNumber",
          "type": "uint256"
        }
      ],
      "name": "getOperatorSigningKeyAtBlock",
      "outputs": [
        {
          "internalType": "address",
          "name": "",
          "type": "address"
        }
      ],
      "stateMutability": "view",
      "type": "function"
    },
    {
      "inputs": [
        {
          "internalType": "address",
          "name": "_operator",
          "type": "address"
        }
      ],
      "name": "getOperatorWeight",
      "outputs": [
        {
          "internalType": "uint256",
          "name": "",
          "type": "uint256"
        }
      ],
      "stateMutability": "view",
      "type": "function"
    },
    {
      "inputs": [
        {
          "internalType": "address",
          "name": "_operator",
          "type": "address"
        },
        {
          "internalType": "uint32",
          "name": "_blockNumber",
          "type": "uint32"
        }
      ],
      "name": "getOperatorWeightAtBlock",
      "outputs": [
        {
          "internalType": "uint256",
          "name": "",
          "type": "uint256"
        }
      ],
      "stateMutability": "view",
      "type": "function"
    },
    {
      "inputs": [
        {
          "internalType": "address",
          "name": "_serviceManager",
          "type": "address"
        },
        {
          "internalType": "uint256",
          "name": "_thresholdWeight",
          "type": "uint256"
        },
        {
          "components": [
            {
              "components": [
                {
                  "internalType": "contract IStrategy",
                  "name": "strategy",
                  "type": "address"
                },
                {
                  "internalType": "uint96",
                  "name": "multiplier",
                  "type": "uint96"
                }
              ],
              "internalType": "struct StrategyParams[]",
              "name": "strategies",
              "type": "tuple[]"
            }
          ],
          "internalType": "struct Quorum",
          "name": "_quorum",
          "type": "tuple"
        }
      ],
      "name": "initialize",
      "outputs": [],
      "stateMutability": "nonpayable",
      "type": "function"
    },
    {
      "inputs": [
        {
          "internalType": "bytes32",
          "name": "_dataHash",
          "type": "bytes32"
        },
        {
          "internalType": "bytes",
          "name": "_signatureData",
          "type": "bytes"
        }
      ],
      "name": "isValidSignature",
      "outputs": [
        {
          "internalType": "bytes4",
          "name": "",
          "type": "bytes4"
        }
      ],
      "stateMutability": "view",
      "type": "function"
    },
    {
      "inputs": [],
      "name": "minimumWeight",
      "outputs": [
        {
          "internalType": "uint256",
          "name": "",
          "type": "uint256"
        }
      ],
      "stateMutability": "view",
      "type": "function"
    },
    {
      "inputs": [
        {
          "internalType": "address",
          "name": "_operator",
          "type": "address"
        }
      ],
      "name": "operatorRegistered",
      "outputs": [
        {
          "internalType": "bool",
          "name": "",
          "type": "bool"
        }
      ],
      "stateMutability": "view",
      "type": "function"
    },
    {
      "inputs": [],
      "name": "owner",
      "outputs": [
        {
          "internalType": "address",
          "name": "",
          "type": "address"
        }
      ],
      "stateMutability": "view",
      "type": "function"
    },
    {
      "inputs": [],
      "name": "quorum",
      "outputs": [
        {
          "components": [
            {
              "components": [
                {
                  "internalType": "contract IStrategy",
                  "name": "strategy",
                  "type": "address"
                },
                {
                  "internalType": "uint96",
                  "name": "multiplier",
                  "type": "uint96"
                }
              ],
              "internalType": "struct StrategyParams[]",
              "name": "strategies",
              "type": "tuple[]"
            }
          ],
          "internalType": "struct Quorum",
          "name": "",
          "type": "tuple"
        }
      ],
      "stateMutability": "view",
      "type": "function"
    },
    {
      "inputs": [
        {
          "components": [
            {
              "internalType": "bytes",
              "name": "signature",
              "type": "bytes"
            },
            {
              "internalType": "bytes32",
              "name": "salt",
              "type": "bytes32"
            },
            {
              "internalType": "uint256",
              "name": "expiry",
              "type": "uint256"
            }
          ],
          "internalType": "struct ISignatureUtils.SignatureWithSaltAndExpiry",
          "name": "_operatorSignature",
          "type": "tuple"
        },
        {
          "internalType": "address",
          "name": "_signingKey",
          "type": "address"
        }
      ],
      "name": "registerOperatorWithSignature",
      "outputs": [],
      "stateMutability": "nonpayable",
      "type": "function"
    },
    {
      "inputs": [],
      "name": "renounceOwnership",
      "outputs": [],
      "stateMutability": "nonpayable",
      "type": "function"
    },
    {
      "inputs": [
        {
          "internalType": "address",
          "name": "newOwner",
          "type": "address"
        }
      ],
      "name": "transferOwnership",
      "outputs": [],
      "stateMutability": "nonpayable",
      "type": "function"
    },
    {
      "inputs": [
        {
          "internalType": "uint256",
          "name": "_newMinimumWeight",
          "type": "uint256"
        },
        {
          "internalType": "address[]",
          "name": "_operators",
          "type": "address[]"
        }
      ],
      "name": "updateMinimumWeight",
      "outputs": [],
      "stateMutability": "nonpayable",
      "type": "function"
    },
    {
      "inputs": [
        {
          "internalType": "address",
          "name": "_newSigningKey",
          "type": "address"
        }
      ],
      "name": "updateOperatorSigningKey",
      "outputs": [],
      "stateMutability": "nonpayable",
      "type": "function"
    },
    {
      "inputs": [
        {
          "internalType": "address[]",
          "name": "_operators",
          "type": "address[]"
        }
      ],
      "name": "updateOperators",
      "outputs": [],
      "stateMutability": "nonpayable",
      "type": "function"
    },
    {
      "inputs": [
        {
          "internalType": "address[][]",
          "name": "operatorsPerQuorum",
          "type": "address[][]"
        },
        {
          "internalType": "bytes",
          "name": "",
          "type": "bytes"
        }
      ],
      "name": "updateOperatorsForQuorum",
      "outputs": [],
      "stateMutability": "nonpayable",
      "type": "function"
    },
    {
      "inputs": [
        {
          "components": [
            {
              "components": [
                {
                  "internalType": "contract IStrategy",
                  "name": "strategy",
                  "type": "address"
                },
                {
                  "internalType": "uint96",
                  "name": "multiplier",
                  "type": "uint96"
                }
              ],
              "internalType": "struct StrategyParams[]",
              "name": "strategies",
              "type": "tuple[]"
            }
          ],
          "internalType": "struct Quorum",
          "name": "_quorum",
          "type": "tuple"
        },
        {
          "internalType": "address[]",
          "name": "_operators",
          "type": "address[]"
        }
      ],
      "name": "updateQuorumConfig",
      "outputs": [],
      "stateMutability": "nonpayable",
      "type": "function"
    },
    {
      "inputs": [
        {
          "internalType": "uint256",
          "name": "_thresholdWeight",
          "type": "uint256"
        }
      ],
      "name": "updateStakeThreshold",
      "outputs": [],
      "stateMutability": "nonpayable",
      "type": "function"
    }
  ],
  "bytecode": "0x60a060405234801561001057600080fd5b5060405161486e38038061486e833981810160405281019061003291906100e3565b808073ffffffffffffffffffffffffffffffffffffffff1660808173ffffffffffffffffffffffffffffffffffffffff16815250505050610110565b600080fd5b600073ffffffffffffffffffffffffffffffffffffffff82169050919050565b600061009e82610073565b9050919050565b60006100b082610093565b9050919050565b6100c0816100a5565b81146100cb57600080fd5b50565b6000815190506100dd816100b7565b92915050565b6000602082840312156100f9576100f861006e565b5b6000610107848285016100ce565b91505092915050565b60805161474361012b6000396000610a9901526147436000f3fe608060405234801561001057600080fd5b50600436106101725760003560e01c8063696255be116100de57806398ec1ac911610097578063cdcd358111610071578063cdcd358114610435578063dec5d1f614610465578063ec7fbb3114610481578063f2fde38b146104b157610172565b806398ec1ac9146103cb578063ab118995146103fb578063b933fa741461041757610172565b8063696255be14610331578063715018a61461034d578063743c31f414610357578063857dc190146103735780638da5cb5b1461037d578063955f2d901461039b57610172565b80633b242e4a116101305780633b242e4a1461025f5780633d5611f61461028f57806340bf2fb7146102ab5780635140a548146102c95780635e1042e8146102e55780635ef533291461031557610172565b8062cf2ab5146101775780630dba3394146101935780631626ba7e146101c35780631703a018146101f35780631e4cd85e14610211578063314f3a4914610241575b600080fd5b610191600480360381019061018c9190612dbb565b6104cd565b005b6101ad60048036038101906101a89190612e40565b6104d9565b6040516101ba9190612e86565b60405180910390f35b6101dd60048036038101906101d89190612f8c565b6104fc565b6040516101ea9190613023565b60405180910390f35b6101fb61053b565b60405161020891906131cc565b60405180910390f35b61022b60048036038101906102269190612e40565b610644565b6040516102389190612e86565b60405180910390f35b610249610667565b6040516102569190612e86565b60405180910390f35b610279600480360381019061027491906131ee565b610678565b6040516102869190612e86565b60405180910390f35b6102a960048036038101906102a491906132d1565b6106c8565b005b6102b36106d7565b6040516102c09190612e86565b60405180910390f35b6102e360048036038101906102de919061340e565b6106e1565b005b6102ff60048036038101906102fa9190613486565b610709565b60405161030c91906134d5565b60405180910390f35b61032f600480360381019061032a91906134f0565b610764565b005b61034b6004803603810190610346919061351d565b610778565b005b610355610796565b005b610371600480360381019061036c91906131ee565b6107aa565b005b61037b61083a565b005b610385610845565b60405161039291906134d5565b60405180910390f35b6103b560048036038101906103b09190613579565b61086f565b6040516103c29190612e86565b60405180910390f35b6103e560048036038101906103e091906131ee565b6108d0565b6040516103f29190612e86565b60405180910390f35b6104156004803603810190610410919061378e565b610be6565b005b61041f610d2a565b60405161042c9190612e86565b60405180910390f35b61044f600480360381019061044a91906131ee565b610d3b565b60405161045c91906134d5565b60405180910390f35b61047f600480360381019061047a91906137fd565b610d8b565b005b61049b600480360381019061049691906131ee565b610da9565b6040516104a89190613890565b60405180910390f35b6104cb60048036038101906104c691906131ee565b610dff565b005b6104d681610e82565b50565b60006104f58263ffffffff16606b610edc90919063ffffffff16565b9050919050565b600080600080848060200190518101906105169190613ae7565b92509250925061052886848484611034565b631626ba7e60e01b935050505092915050565b610543612b5f565b606660405180602001604052908160008201805480602002602001604051908101604052809291908181526020016000905b82821015610637578382906000526020600020016040518060400160405290816000820160009054906101000a900473ffffffffffffffffffffffffffffffffffffffff1673ffffffffffffffffffffffffffffffffffffffff1673ffffffffffffffffffffffffffffffffffffffff1681526020016000820160149054906101000a90046bffffffffffffffffffffffff166bffffffffffffffffffffffff166bffffffffffffffffffffffff168152505081526020019060010190610575565b5050505081525050905090565b60006106608263ffffffff16606c610edc90919063ffffffff16565b9050919050565b6000610673606b6110f1565b905090565b60006106c1606d60008473ffffffffffffffffffffffffffffffffffffffff1673ffffffffffffffffffffffffffffffffffffffff1681526020019081526020016000206110f1565b9050919050565b6106d333838361118c565b5050565b6000606754905090565b610705826000815181106106f8576106f7613b72565b5b60200260200101516113b3565b5050565b600061075c82606a60008673ffffffffffffffffffffffffffffffffffffffff1673ffffffffffffffffffffffffffffffffffffffff168152602001908152602001600020610edc90919063ffffffff16565b905092915050565b61076c6113fb565b61077581611479565b50565b6107806113fb565b610789826114c9565b61079281610e82565b5050565b61079e6113fb565b6107a86000611514565b565b606e60003373ffffffffffffffffffffffffffffffffffffffff1673ffffffffffffffffffffffffffffffffffffffff16815260200190815260200160002060009054906101000a900460ff1661082d576040517f25ec6c1f00000000000000000000000000000000000000000000000000000000815260040160405180910390fd5b61083733826115da565b50565b61084333611733565b565b6000603360009054906101000a900473ffffffffffffffffffffffffffffffffffffffff16905090565b60006108c88263ffffffff16606d60008673ffffffffffffffffffffffffffffffffffffffff1673ffffffffffffffffffffffffffffffffffffffff168152602001908152602001600020610edc90919063ffffffff16565b905092915050565b6000806066600001805480602002602001604051908101604052809291908181526020016000905b828210156109ba578382906000526020600020016040518060400160405290816000820160009054906101000a900473ffffffffffffffffffffffffffffffffffffffff1673ffffffffffffffffffffffffffffffffffffffff1673ffffffffffffffffffffffffffffffffffffffff1681526020016000820160149054906101000a90046bffffffffffffffffffffffff166bffffffffffffffffffffffff166bffffffffffffffffffffffff1681525050815260200190600101906108f8565b505050509050600080825167ffffffffffffffff8111156109de576109dd612c1a565b5b604051908082528060200260200182016040528015610a0c5781602001602082028036833780820191505090505b50905060005b8351811015610a9457838181518110610a2e57610a2d613b72565b5b602002602001015160000151828281518110610a4d57610a4c613b72565b5b602002602001019073ffffffffffffffffffffffffffffffffffffffff16908173ffffffffffffffffffffffffffffffffffffffff16815250508080600101915050610a12565b5060007f000000000000000000000000000000000000000000000000000000000000000073ffffffffffffffffffffffffffffffffffffffff16639004134787846040518363ffffffff1660e01b8152600401610af2929190613c50565b600060405180830381865afa158015610b0f573d6000803e3d6000fd5b505050506040513d6000823e3d601f19601f82011682018060405250810190610b389190613d58565b905060005b8451811015610bb257848181518110610b5957610b58613b72565b5b6020026020010151602001516bffffffffffffffffffffffff16828281518110610b8657610b85613b72565b5b6020026020010151610b989190613dd0565b84610ba39190613e12565b93508080600101915050610b3d565b5061271083610bc19190613e75565b92506067548310610bd85782945050505050610be1565b60009450505050505b919050565b60008060019054906101000a900460ff16159050808015610c175750600160008054906101000a900460ff1660ff16105b80610c445750610c2630611942565b158015610c435750600160008054906101000a900460ff1660ff16145b5b610c83576040517f08c379a0000000000000000000000000000000000000000000000000000000008152600401610c7a90613f29565b60405180910390fd5b60016000806101000a81548160ff021916908360ff1602179055508015610cc0576001600060016101000a81548160ff0219169083151502179055505b610ccb848484611965565b8015610d245760008060016101000a81548160ff0219169083151502179055507f7f26b83ff96e1f2b6a682f133852f6798a09c465da95921460cefb38474024986001604051610d1b9190613f91565b60405180910390a15b50505050565b6000610d36606c6110f1565b905090565b6000610d84606a60008473ffffffffffffffffffffffffffffffffffffffff1673ffffffffffffffffffffffffffffffffffffffff1681526020019081526020016000206110f1565b9050919050565b610d936113fb565b610d9c82611a14565b610da581610e82565b5050565b6000606e60008373ffffffffffffffffffffffffffffffffffffffff1673ffffffffffffffffffffffffffffffffffffffff16815260200190815260200160002060009054906101000a900460ff169050919050565b610e076113fb565b600073ffffffffffffffffffffffffffffffffffffffff168173ffffffffffffffffffffffffffffffffffffffff1603610e76576040517f08c379a0000000000000000000000000000000000000000000000000000000008152600401610e6d9061401e565b60405180910390fd5b610e7f81611514565b50565b6000805b8251811015610ecc57610eb2838281518110610ea557610ea4613b72565b5b6020026020010151611c8c565b82610ebd9190614048565b91508080600101915050610e86565b50610ed681611e82565b50505050565b6000438210610f20576040517f08c379a0000000000000000000000000000000000000000000000000000000008152600401610f17906140d8565b60405180910390fd5b60008360000180549050905060005b81811015610fa4576000610f438284611ef9565b905084866000018281548110610f5c57610f5b613b72565b5b9060005260206000200160000160009054906101000a900463ffffffff1663ffffffff161115610f8e57809250610f9e565b600181610f9b9190613e12565b91505b50610f2f565b600082146110095784600001600183610fbd91906140f8565b81548110610fce57610fcd613b72565b5b9060005260206000200160000160049054906101000a90047bffffffffffffffffffffffffffffffffffffffffffffffffffffffff1661100c565b60005b7bffffffffffffffffffffffffffffffffffffffffffffffffffffffff169250505092915050565b60008351905060008060008061104b858851611f1f565b60005b858110156110db5788818151811061106957611068613b72565b5b6020026020010151945061107d8588611f96565b92506110898486612036565b6110ae838b8a84815181106110a1576110a0613b72565b5b602002602001015161209f565b84935060006110bd8689612105565b905080836110cb9190613e12565b925050808060010191505061104e565b506110e681876121a5565b505050505050505050565b6000808260000180549050905060008114611163578260000160018261111791906140f8565b8154811061112857611127613b72565b5b9060005260206000200160000160049054906101000a90047bffffffffffffffffffffffffffffffffffffffffffffffffffffffff16611166565b60005b7bffffffffffffffffffffffffffffffffffffffffffffffffffffffff16915050919050565b606e60008473ffffffffffffffffffffffffffffffffffffffff1673ffffffffffffffffffffffffffffffffffffffff16815260200190815260200160002060009054906101000a900460ff1615611210576040517f42ee68b500000000000000000000000000000000000000000000000000000000815260040160405180910390fd5b606560008154809291906112239061412c565b91905055506001606e60008573ffffffffffffffffffffffffffffffffffffffff1673ffffffffffffffffffffffffffffffffffffffff16815260200190815260200160002060006101000a81548160ff021916908315150217905550600061128b84611c8c565b905061129681611e82565b50506112a284836115da565b606860009054906101000a900473ffffffffffffffffffffffffffffffffffffffff1673ffffffffffffffffffffffffffffffffffffffff16639926ee7d85856040518363ffffffff1660e01b81526004016112ff929190614237565b600060405180830381600087803b15801561131957600080fd5b505af115801561132d573d6000803e3d6000fd5b50505050606860009054906101000a900473ffffffffffffffffffffffffffffffffffffffff1673ffffffffffffffffffffffffffffffffffffffff168473ffffffffffffffffffffffffffffffffffffffff167fa453db612af59e5521d6ab9284dc3e2d06af286eb1b1b7b771fce4716c19f2c160405160405180910390a350505050565b6065548151146113ef576040517f2d3df6b600000000000000000000000000000000000000000000000000000000815260040160405180910390fd5b6113f881610e82565b50565b611403612239565b73ffffffffffffffffffffffffffffffffffffffff16611421610845565b73ffffffffffffffffffffffffffffffffffffffff1614611477576040517f08c379a000000000000000000000000000000000000000000000000000000000815260040161146e906142b3565b60405180910390fd5b565b61148d81606c61224190919063ffffffff16565b50507f9324f7e5a7c0288808a634ccde44b8e979676474b22e29ee9dd569b55e791a4b816040516114be9190612e86565b60405180910390a150565b60006067549050816067819055507f713ca53b88d6eb63f5b1854cb8cbdd736ec51eda225e46791aa9298b0160648f81836040516115089291906142d3565b60405180910390a15050565b6000603360009054906101000a900473ffffffffffffffffffffffffffffffffffffffff16905081603360006101000a81548173ffffffffffffffffffffffffffffffffffffffff021916908373ffffffffffffffffffffffffffffffffffffffff1602179055508173ffffffffffffffffffffffffffffffffffffffff168173ffffffffffffffffffffffffffffffffffffffff167f8be0079c531659141344cd1fd0a4f28419497f9722a3daafe3b4186f6b6457e060405160405180910390a35050565b6000611623606a60008573ffffffffffffffffffffffffffffffffffffffff1673ffffffffffffffffffffffffffffffffffffffff1681526020019081526020016000206110f1565b90508073ffffffffffffffffffffffffffffffffffffffff168273ffffffffffffffffffffffffffffffffffffffff160361165e575061172f565b6116c58273ffffffffffffffffffffffffffffffffffffffff16606a60008673ffffffffffffffffffffffffffffffffffffffff1673ffffffffffffffffffffffffffffffffffffffff16815260200190815260200160002061224190919063ffffffff16565b50508173ffffffffffffffffffffffffffffffffffffffff16438473ffffffffffffffffffffffffffffffffffffffff167fd061168252f441733658f09e4d8f5b2d998ed4ef24a2bbfd6ceca52ea13150028460405161172591906134d5565b60405180910390a4505b5050565b606e60008273ffffffffffffffffffffffffffffffffffffffff1673ffffffffffffffffffffffffffffffffffffffff16815260200190815260200160002060009054906101000a900460ff166117b6576040517f25ec6c1f00000000000000000000000000000000000000000000000000000000815260040160405180910390fd5b606560008154809291906117c9906142fc565b9190505550606e60008273ffffffffffffffffffffffffffffffffffffffff1673ffffffffffffffffffffffffffffffffffffffff16815260200190815260200160002060006101000a81549060ff0219169055600061182882611c8c565b905061183381611e82565b5050606860009054906101000a900473ffffffffffffffffffffffffffffffffffffffff1673ffffffffffffffffffffffffffffffffffffffff1663a364f4da836040518263ffffffff1660e01b815260040161189091906134d5565b600060405180830381600087803b1580156118aa57600080fd5b505af11580156118be573d6000803e3d6000fd5b50505050606860009054906101000a900473ffffffffffffffffffffffffffffffffffffffff1673ffffffffffffffffffffffffffffffffffffffff168273ffffffffffffffffffffffffffffffffffffffff167f31e0adfec71bccee37b6e83a90c2fedb17d8f1693fee863c4771e7bfe2aed58060405160405180910390a35050565b6000808273ffffffffffffffffffffffffffffffffffffffff163b119050919050565b600060019054906101000a900460ff166119b4576040517f08c379a00000000000000000000000000000000000000000000000000000000081526004016119ab90614397565b60405180910390fd5b82606860006101000a81548173ffffffffffffffffffffffffffffffffffffffff021916908373ffffffffffffffffffffffffffffffffffffffff1602179055506119fe82611479565b611a0781611a14565b611a0f612443565b505050565b611a1d8161249c565b611a53576040517fd173577900000000000000000000000000000000000000000000000000000000815260040160405180910390fd5b6000606660405180602001604052908160008201805480602002602001604051908101604052809291908181526020016000905b82821015611b49578382906000526020600020016040518060400160405290816000820160009054906101000a900473ffffffffffffffffffffffffffffffffffffffff1673ffffffffffffffffffffffffffffffffffffffff1673ffffffffffffffffffffffffffffffffffffffff1681526020016000820160149054906101000a90046bffffffffffffffffffffffff166bffffffffffffffffffffffff166bffffffffffffffffffffffff168152505081526020019060010190611a87565b50505050815250509050606660008082016000611b669190612b72565b505060005b826000015151811015611c4e57606660000183600001518281518110611b9457611b93613b72565b5b60200260200101519080600181540180825580915050600190039060005260206000200160009091909190915060008201518160000160006101000a81548173ffffffffffffffffffffffffffffffffffffffff021916908373ffffffffffffffffffffffffffffffffffffffff16021790555060208201518160000160146101000a8154816bffffffffffffffffffffffff02191690836bffffffffffffffffffffffff16021790555050508080600101915050611b6b565b507f23aad4e61744ece164130aa415c1616e80136b0f0770e56589438b90b269265e8183604051611c809291906143b7565b60405180910390a15050565b600080600080611cd9606d60008773ffffffffffffffffffffffffffffffffffffffff1673ffffffffffffffffffffffffffffffffffffffff1681526020019081526020016000206110f1565b9050606e60008673ffffffffffffffffffffffffffffffffffffffff1673ffffffffffffffffffffffffffffffffffffffff16815260200190815260200160002060009054906101000a900460ff16611da6578083611d3891906143ee565b925060008303611d4d57829350505050611e7d565b611d9f6000606d60008873ffffffffffffffffffffffffffffffffffffffff1673ffffffffffffffffffffffffffffffffffffffff16815260200190815260200160002061224190919063ffffffff16565b5050611e26565b611daf856108d0565b91508082611dbd91906143ee565b925060008303611dd257829350505050611e7d565b611e2382606d60008873ffffffffffffffffffffffffffffffffffffffff1673ffffffffffffffffffffffffffffffffffffffff16815260200190815260200160002061224190919063ffffffff16565b50505b8473ffffffffffffffffffffffffffffffffffffffff167f88770dc862e47a7ed586907857eb1b75e4c5ffc8b707c7ee10eb74d6885fe5948284604051611e6e9291906142d3565b60405180910390a28293505050505b919050565b600080611e8f606b6110f1565b915060008383611e9f9190614048565b9050809150611eb882606b61224190919063ffffffff16565b50507f86dcf86b12dfeedea74ae9300dbdaa193bcce5809369c8177ea2f4eaaa65729b8383604051611eeb9291906142d3565b60405180910390a150915091565b60006002828418611f0a9190613e75565b828416611f179190613e12565b905092915050565b808214611f58576040517fff633a3800000000000000000000000000000000000000000000000000000000815260040160405180910390fd5b60008203611f92576040517f947d5a8400000000000000000000000000000000000000000000000000000000815260040160405180910390fd5b5050565b6000438263ffffffff1610611fd7576040517fe64f180f00000000000000000000000000000000000000000000000000000000815260040160405180910390fd5b61202e8263ffffffff16606a60008673ffffffffffffffffffffffffffffffffffffffff1673ffffffffffffffffffffffffffffffffffffffff168152602001908152602001600020610edc90919063ffffffff16565b905092915050565b8073ffffffffffffffffffffffffffffffffffffffff168273ffffffffffffffffffffffffffffffffffffffff161061209b576040517fba50f91100000000000000000000000000000000000000000000000000000000815260040160405180910390fd5b5050565b6120ca82828573ffffffffffffffffffffffffffffffffffffffff166125ab9092919063ffffffff16565b612100576040517f8baa579f00000000000000000000000000000000000000000000000000000000815260040160405180910390fd5b505050565b6000438263ffffffff1610612146576040517fe64f180f00000000000000000000000000000000000000000000000000000000815260040160405180910390fd5b61219d8263ffffffff16606d60008673ffffffffffffffffffffffffffffffffffffffff1673ffffffffffffffffffffffffffffffffffffffff168152602001908152602001600020610edc90919063ffffffff16565b905092915050565b60006121b082612790565b9050808311156121ec576040517f960b41ee00000000000000000000000000000000000000000000000000000000815260040160405180910390fd5b60006121f7836127f2565b905083811115612233576040517fe121632f00000000000000000000000000000000000000000000000000000000815260040160405180910390fd5b50505050565b600033905090565b600080600084600001805490509050600061225b866110f1565b90506000821180156122b15750438660000160018461227a91906140f8565b8154811061228b5761228a613b72565b5b9060005260206000200160000160009054906101000a900463ffffffff1663ffffffff16145b15612341576122bf85612854565b866000016001846122d091906140f8565b815481106122e1576122e0613b72565b5b9060005260206000200160000160046101000a8154817bffffffffffffffffffffffffffffffffffffffffffffffffffffffff02191690837bffffffffffffffffffffffffffffffffffffffffffffffffffffffff160217905550612434565b856000016040518060400160405280612359436128bf565b63ffffffff16815260200161236d88612854565b7bffffffffffffffffffffffffffffffffffffffffffffffffffffffff168152509080600181540180825580915050600190039060005260206000200160009091909190915060008201518160000160006101000a81548163ffffffff021916908363ffffffff16021790555060208201518160000160046101000a8154817bffffffffffffffffffffffffffffffffffffffffffffffffffffffff02191690837bffffffffffffffffffffffffffffffffffffffffffffffffffffffff16021790555050505b80859350935050509250929050565b600060019054906101000a900460ff16612492576040517f08c379a000000000000000000000000000000000000000000000000000000000815260040161248990614397565b60405180910390fd5b61249a612912565b565b600080826000015190506000806000805b8451811015612586578481815181106124c9576124c8613b72565b5b60200260200101516000015192508273ffffffffffffffffffffffffffffffffffffffff168473ffffffffffffffffffffffffffffffffffffffff161061253c576040517fba50f91100000000000000000000000000000000000000000000000000000000815260040160405180910390fd5b82935084818151811061255257612551613b72565b5b6020026020010151602001516bffffffffffffffffffffffff16826125779190613e12565b915080806001019150506124ad565b50612710811461259d5760009450505050506125a6565b60019450505050505b919050565b60008060006125ba8585612973565b91509150600060048111156125d2576125d1614431565b5b8160048111156125e5576125e4614431565b5b14801561261d57508573ffffffffffffffffffffffffffffffffffffffff168273ffffffffffffffffffffffffffffffffffffffff16145b1561262d57600192505050612789565b6000808773ffffffffffffffffffffffffffffffffffffffff16631626ba7e60e01b88886040516024016126629291906144b9565b604051602081830303815290604052907bffffffffffffffffffffffffffffffffffffffffffffffffffffffff19166020820180517bffffffffffffffffffffffffffffffffffffffffffffffffffffffff83818316178352505050506040516126cc9190614525565b600060405180830381855afa9150503d8060008114612707576040519150601f19603f3d011682016040523d82523d6000602084013e61270c565b606091505b509150915081801561271f575060208151145b80156127825750631626ba7e60e01b7bffffffffffffffffffffffffffffffffffffffffffffffffffffffff1916818060200190518101906127619190614568565b7bffffffffffffffffffffffffffffffffffffffffffffffffffffffff1916145b9450505050505b9392505050565b6000438263ffffffff16106127d1576040517fe64f180f00000000000000000000000000000000000000000000000000000000815260040160405180910390fd5b6127eb8263ffffffff16606b610edc90919063ffffffff16565b9050919050565b6000438263ffffffff1610612833576040517fe64f180f00000000000000000000000000000000000000000000000000000000815260040160405180910390fd5b61284d8263ffffffff16606c610edc90919063ffffffff16565b9050919050565b60007bffffffffffffffffffffffffffffffffffffffffffffffffffffffff80168211156128b7576040517f08c379a00000000000000000000000000000000000000000000000000000000081526004016128ae90614607565b60405180910390fd5b819050919050565b600063ffffffff801682111561290a576040517f08c379a000000000000000000000000000000000000000000000000000000000815260040161290190614699565b60405180910390fd5b819050919050565b600060019054906101000a900460ff16612961576040517f08c379a000000000000000000000000000000000000000000000000000000000815260040161295890614397565b60405180910390fd5b61297161296c612239565b611514565b565b60008060418351036129b45760008060006020860151925060408601519150606086015160001a90506129a8878285856129f4565b945094505050506129ed565b60408351036129e45760008060208501519150604085015190506129d9868383612b00565b9350935050506129ed565b60006002915091505b9250929050565b6000807f7fffffffffffffffffffffffffffffff5d576e7357a4501ddfe92f46681b20a08360001c1115612a2f576000600391509150612af7565b601b8560ff1614158015612a475750601c8560ff1614155b15612a59576000600491509150612af7565b600060018787878760405160008152602001604052604051612a7e94939291906146c8565b6020604051602081039080840390855afa158015612aa0573d6000803e3d6000fd5b505050602060405103519050600073ffffffffffffffffffffffffffffffffffffffff168173ffffffffffffffffffffffffffffffffffffffff1603612aee57600060019250925050612af7565b80600092509250505b94509492505050565b60008060007f7fffffffffffffffffffffffffffffffffffffffffffffffffffffffffffffff60001b841690506000601b60ff8660001c901c612b439190613e12565b9050612b51878288856129f4565b935093505050935093915050565b6040518060200160405280606081525090565b5080546000825590600052602060002090810190612b909190612b93565b50565b5b80821115612bec57600080820160006101000a81549073ffffffffffffffffffffffffffffffffffffffff02191690556000820160146101000a8154906bffffffffffffffffffffffff021916905550600101612b94565b5090565b6000604051905090565b600080fd5b600080fd5b600080fd5b6000601f19601f8301169050919050565b7f4e487b7100000000000000000000000000000000000000000000000000000000600052604160045260246000fd5b612c5282612c09565b810181811067ffffffffffffffff82111715612c7157612c70612c1a565b5b80604052505050565b6000612c84612bf0565b9050612c908282612c49565b919050565b600067ffffffffffffffff821115612cb057612caf612c1a565b5b602082029050602081019050919050565b600080fd5b600073ffffffffffffffffffffffffffffffffffffffff82169050919050565b6000612cf182612cc6565b9050919050565b612d0181612ce6565b8114612d0c57600080fd5b50565b600081359050612d1e81612cf8565b92915050565b6000612d37612d3284612c95565b612c7a565b90508083825260208201905060208402830185811115612d5a57612d59612cc1565b5b835b81811015612d835780612d6f8882612d0f565b845260208401935050602081019050612d5c565b5050509392505050565b600082601f830112612da257612da1612c04565b5b8135612db2848260208601612d24565b91505092915050565b600060208284031215612dd157612dd0612bfa565b5b600082013567ffffffffffffffff811115612def57612dee612bff565b5b612dfb84828501612d8d565b91505092915050565b600063ffffffff82169050919050565b612e1d81612e04565b8114612e2857600080fd5b50565b600081359050612e3a81612e14565b92915050565b600060208284031215612e5657612e55612bfa565b5b6000612e6484828501612e2b565b91505092915050565b6000819050919050565b612e8081612e6d565b82525050565b6000602082019050612e9b6000830184612e77565b92915050565b6000819050919050565b612eb481612ea1565b8114612ebf57600080fd5b50565b600081359050612ed181612eab565b92915050565b600080fd5b600067ffffffffffffffff821115612ef757612ef6612c1a565b5b612f0082612c09565b9050602081019050919050565b82818337600083830152505050565b6000612f2f612f2a84612edc565b612c7a565b905082815260208101848484011115612f4b57612f4a612ed7565b5b612f56848285612f0d565b509392505050565b600082601f830112612f7357612f72612c04565b5b8135612f83848260208601612f1c565b91505092915050565b60008060408385031215612fa357612fa2612bfa565b5b6000612fb185828601612ec2565b925050602083013567ffffffffffffffff811115612fd257612fd1612bff565b5b612fde85828601612f5e565b9150509250929050565b60007fffffffff0000000000000000000000000000000000000000000000000000000082169050919050565b61301d81612fe8565b82525050565b60006020820190506130386000830184613014565b92915050565b600081519050919050565b600082825260208201905092915050565b6000819050602082019050919050565b6000819050919050565b600061308f61308a61308584612cc6565b61306a565b612cc6565b9050919050565b60006130a182613074565b9050919050565b60006130b382613096565b9050919050565b6130c3816130a8565b82525050565b60006bffffffffffffffffffffffff82169050919050565b6130ea816130c9565b82525050565b60408201600082015161310660008501826130ba565b50602082015161311960208501826130e1565b50505050565b600061312b83836130f0565b60408301905092915050565b6000602082019050919050565b600061314f8261303e565b6131598185613049565b93506131648361305a565b8060005b8381101561319557815161317c888261311f565b975061318783613137565b925050600181019050613168565b5085935050505092915050565b600060208301600083015184820360008601526131bf8282613144565b9150508091505092915050565b600060208201905081810360008301526131e681846131a2565b905092915050565b60006020828403121561320457613203612bfa565b5b600061321284828501612d0f565b91505092915050565b600080fd5b600080fd5b61322e81612e6d565b811461323957600080fd5b50565b60008135905061324b81613225565b92915050565b6000606082840312156132675761326661321b565b5b6132716060612c7a565b9050600082013567ffffffffffffffff81111561329157613290613220565b5b61329d84828501612f5e565b60008301525060206132b184828501612ec2565b60208301525060406132c58482850161323c565b60408301525092915050565b600080604083850312156132e8576132e7612bfa565b5b600083013567ffffffffffffffff81111561330657613305612bff565b5b61331285828601613251565b925050602061332385828601612d0f565b9150509250929050565b600067ffffffffffffffff82111561334857613347612c1a565b5b602082029050602081019050919050565b600061336c6133678461332d565b612c7a565b9050808382526020820190506020840283018581111561338f5761338e612cc1565b5b835b818110156133d657803567ffffffffffffffff8111156133b4576133b3612c04565b5b8086016133c18982612d8d565b85526020850194505050602081019050613391565b5050509392505050565b600082601f8301126133f5576133f4612c04565b5b8135613405848260208601613359565b91505092915050565b6000806040838503121561342557613424612bfa565b5b600083013567ffffffffffffffff81111561344357613442612bff565b5b61344f858286016133e0565b925050602083013567ffffffffffffffff8111156134705761346f612bff565b5b61347c85828601612f5e565b9150509250929050565b6000806040838503121561349d5761349c612bfa565b5b60006134ab85828601612d0f565b92505060206134bc8582860161323c565b9150509250929050565b6134cf81612ce6565b82525050565b60006020820190506134ea60008301846134c6565b92915050565b60006020828403121561350657613505612bfa565b5b60006135148482850161323c565b91505092915050565b6000806040838503121561353457613533612bfa565b5b60006135428582860161323c565b925050602083013567ffffffffffffffff81111561356357613562612bff565b5b61356f85828601612d8d565b9150509250929050565b600080604083850312156135905761358f612bfa565b5b600061359e85828601612d0f565b92505060206135af85828601612e2b565b9150509250929050565b600067ffffffffffffffff8211156135d4576135d3612c1a565b5b602082029050602081019050919050565b60006135f082612ce6565b9050919050565b613600816135e5565b811461360b57600080fd5b50565b60008135905061361d816135f7565b92915050565b61362c816130c9565b811461363757600080fd5b50565b60008135905061364981613623565b92915050565b6000604082840312156136655761366461321b565b5b61366f6040612c7a565b9050600061367f8482850161360e565b60008301525060206136938482850161363a565b60208301525092915050565b60006136b26136ad846135b9565b612c7a565b905080838252602082019050604084028301858111156136d5576136d4612cc1565b5b835b818110156136fe57806136ea888261364f565b8452602084019350506040810190506136d7565b5050509392505050565b600082601f83011261371d5761371c612c04565b5b813561372d84826020860161369f565b91505092915050565b60006020828403121561374c5761374b61321b565b5b6137566020612c7a565b9050600082013567ffffffffffffffff81111561377657613775613220565b5b61378284828501613708565b60008301525092915050565b6000806000606084860312156137a7576137a6612bfa565b5b60006137b586828701612d0f565b93505060206137c68682870161323c565b925050604084013567ffffffffffffffff8111156137e7576137e6612bff565b5b6137f386828701613736565b9150509250925092565b6000806040838503121561381457613813612bfa565b5b600083013567ffffffffffffffff81111561383257613831612bff565b5b61383e85828601613736565b925050602083013567ffffffffffffffff81111561385f5761385e612bff565b5b61386b85828601612d8d565b9150509250929050565b60008115159050919050565b61388a81613875565b82525050565b60006020820190506138a56000830184613881565b92915050565b6000815190506138ba81612cf8565b92915050565b60006138d36138ce84612c95565b612c7a565b905080838252602082019050602084028301858111156138f6576138f5612cc1565b5b835b8181101561391f578061390b88826138ab565b8452602084019350506020810190506138f8565b5050509392505050565b600082601f83011261393e5761393d612c04565b5b815161394e8482602086016138c0565b91505092915050565b600067ffffffffffffffff82111561397257613971612c1a565b5b602082029050602081019050919050565b60005b838110156139a1578082015181840152602081019050613986565b60008484015250505050565b60006139c06139bb84612edc565b612c7a565b9050828152602081018484840111156139dc576139db612ed7565b5b6139e7848285613983565b509392505050565b600082601f830112613a0457613a03612c04565b5b8151613a148482602086016139ad565b91505092915050565b6000613a30613a2b84613957565b612c7a565b90508083825260208201905060208402830185811115613a5357613a52612cc1565b5b835b81811015613a9a57805167ffffffffffffffff811115613a7857613a77612c04565b5b808601613a8589826139ef565b85526020850194505050602081019050613a55565b5050509392505050565b600082601f830112613ab957613ab8612c04565b5b8151613ac9848260208601613a1d565b91505092915050565b600081519050613ae181612e14565b92915050565b600080600060608486031215613b0057613aff612bfa565b5b600084015167ffffffffffffffff811115613b1e57613b1d612bff565b5b613b2a86828701613929565b935050602084015167ffffffffffffffff811115613b4b57613b4a612bff565b5b613b5786828701613aa4565b9250506040613b6886828701613ad2565b9150509250925092565b7f4e487b7100000000000000000000000000000000000000000000000000000000600052603260045260246000fd5b600081519050919050565b600082825260208201905092915050565b6000819050602082019050919050565b6000613bd983836130ba565b60208301905092915050565b6000602082019050919050565b6000613bfd82613ba1565b613c078185613bac565b9350613c1283613bbd565b8060005b83811015613c43578151613c2a8882613bcd565b9750613c3583613be5565b925050600181019050613c16565b5085935050505092915050565b6000604082019050613c6560008301856134c6565b8181036020830152613c778184613bf2565b90509392505050565b600067ffffffffffffffff821115613c9b57613c9a612c1a565b5b602082029050602081019050919050565b600081519050613cbb81613225565b92915050565b6000613cd4613ccf84613c80565b612c7a565b90508083825260208201905060208402830185811115613cf757613cf6612cc1565b5b835b81811015613d205780613d0c8882613cac565b845260208401935050602081019050613cf9565b5050509392505050565b600082601f830112613d3f57613d3e612c04565b5b8151613d4f848260208601613cc1565b91505092915050565b600060208284031215613d6e57613d6d612bfa565b5b600082015167ffffffffffffffff811115613d8c57613d8b612bff565b5b613d9884828501613d2a565b91505092915050565b7f4e487b7100000000000000000000000000000000000000000000000000000000600052601160045260246000fd5b6000613ddb82612e6d565b9150613de683612e6d565b9250828202613df481612e6d565b91508282048414831517613e0b57613e0a613da1565b5b5092915050565b6000613e1d82612e6d565b9150613e2883612e6d565b9250828201905080821115613e4057613e3f613da1565b5b92915050565b7f4e487b7100000000000000000000000000000000000000000000000000000000600052601260045260246000fd5b6000613e8082612e6d565b9150613e8b83612e6d565b925082613e9b57613e9a613e46565b5b828204905092915050565b600082825260208201905092915050565b7f496e697469616c697a61626c653a20636f6e747261637420697320616c72656160008201527f647920696e697469616c697a6564000000000000000000000000000000000000602082015250565b6000613f13602e83613ea6565b9150613f1e82613eb7565b604082019050919050565b60006020820190508181036000830152613f4281613f06565b9050919050565b6000819050919050565b600060ff82169050919050565b6000613f7b613f76613f7184613f49565b61306a565b613f53565b9050919050565b613f8b81613f60565b82525050565b6000602082019050613fa66000830184613f82565b92915050565b7f4f776e61626c653a206e6577206f776e657220697320746865207a65726f206160008201527f6464726573730000000000000000000000000000000000000000000000000000602082015250565b6000614008602683613ea6565b915061401382613fac565b604082019050919050565b6000602082019050818103600083015261403781613ffb565b9050919050565b6000819050919050565b60006140538261403e565b915061405e8361403e565b92508282019050828112156000831216838212600084121516171561408657614085613da1565b5b92915050565b7f436865636b706f696e74733a20626c6f636b206e6f7420796574206d696e6564600082015250565b60006140c2602083613ea6565b91506140cd8261408c565b602082019050919050565b600060208201905081810360008301526140f1816140b5565b9050919050565b600061410382612e6d565b915061410e83612e6d565b925082820390508181111561412657614125613da1565b5b92915050565b600061413782612e6d565b91507fffffffffffffffffffffffffffffffffffffffffffffffffffffffffffffffff820361416957614168613da1565b5b600182019050919050565b600081519050919050565b600082825260208201905092915050565b600061419b82614174565b6141a5818561417f565b93506141b5818560208601613983565b6141be81612c09565b840191505092915050565b6141d281612ea1565b82525050565b6141e181612e6d565b82525050565b600060608301600083015184820360008601526142048282614190565b915050602083015161421960208601826141c9565b50604083015161422c60408601826141d8565b508091505092915050565b600060408201905061424c60008301856134c6565b818103602083015261425e81846141e7565b90509392505050565b7f4f776e61626c653a2063616c6c6572206973206e6f7420746865206f776e6572600082015250565b600061429d602083613ea6565b91506142a882614267565b602082019050919050565b600060208201905081810360008301526142cc81614290565b9050919050565b60006040820190506142e86000830185612e77565b6142f56020830184612e77565b9392505050565b600061430782612e6d565b91506000820361431a57614319613da1565b5b600182039050919050565b7f496e697469616c697a61626c653a20636f6e7472616374206973206e6f74206960008201527f6e697469616c697a696e67000000000000000000000000000000000000000000602082015250565b6000614381602b83613ea6565b915061438c82614325565b604082019050919050565b600060208201905081810360008301526143b081614374565b9050919050565b600060408201905081810360008301526143d181856131a2565b905081810360208301526143e581846131a2565b90509392505050565b60006143f98261403e565b91506144048361403e565b925082820390508181126000841216828213600085121516171561442b5761442a613da1565b5b92915050565b7f4e487b7100000000000000000000000000000000000000000000000000000000600052602160045260246000fd5b61446981612ea1565b82525050565b600082825260208201905092915050565b600061448b82614174565b614495818561446f565b93506144a5818560208601613983565b6144ae81612c09565b840191505092915050565b60006040820190506144ce6000830185614460565b81810360208301526144e08184614480565b90509392505050565b600081905092915050565b60006144ff82614174565b61450981856144e9565b9350614519818560208601613983565b80840191505092915050565b600061453182846144f4565b915081905092915050565b61454581612fe8565b811461455057600080fd5b50565b6000815190506145628161453c565b92915050565b60006020828403121561457e5761457d612bfa565b5b600061458c84828501614553565b91505092915050565b7f53616665436173743a2076616c756520646f65736e27742066697420696e203260008201527f3234206269747300000000000000000000000000000000000000000000000000602082015250565b60006145f1602783613ea6565b91506145fc82614595565b604082019050919050565b60006020820190508181036000830152614620816145e4565b9050919050565b7f53616665436173743a2076616c756520646f65736e27742066697420696e203360008201527f3220626974730000000000000000000000000000000000000000000000000000602082015250565b6000614683602683613ea6565b915061468e82614627565b604082019050919050565b600060208201905081810360008301526146b281614676565b9050919050565b6146c281613f53565b82525050565b60006080820190506146dd6000830187614460565b6146ea60208301866146b9565b6146f76040830185614460565b6147046060830184614460565b9594505050505056fea264697066735822122033d8f8e3f4841db3dafdfe719446e4deb66835ebff8a01cc879545ca991dcd7264736f6c634300081a0033",
  "linkReferences": {},
  "deployedLinkReferences": {}
}