{
  "_format": "hh-sol-artifact-1",
  "contractName": "AgentAVS",
  "sourceName": "contracts/AgentAVS.sol",
  "abi": [
    {
      "inputs": [
        {
          "internalType": "address",
          "name": "_avsDirectory",
          "type": "address"
        },
        {
          "internalType": "address",
          "name": "_stakeRegistry",
          "type": "address"
        },
        {
          "internalType": "address",
          "name": "_rewardsCoordinator",
          "type": "address"
        },
        {
          "internalType": "address",
          "name": "_delegationManager",
          "type": "address"
        }
      ],
      "stateMutability": "nonpayable",
      "type": "constructor"
    },
    {
      "anonymous": false,
      "inputs": [
        {
          "indexed": false,
          "internalType": "uint8",
          "name": "version",
          "type": "uint8"
        }
      ],
      "name": "Initialized",
      "type": "event"
    },
    {
      "anonymous": false,
      "inputs": [
        {
          "indexed": true,
          "internalType": "uint32",
          "name": "taskIndex",
          "type": "uint32"
        },
        {
          "components": [
            {
              "internalType": "string",
              "name": "name",
              "type": "string"
            },
            {
              "internalType": "uint32",
              "name": "taskCreatedBlock",
              "type": "uint32"
            }
          ],
          "indexed": false,
          "internalType": "struct IAgentAVS.Task",
          "name": "task",
          "type": "tuple"
        }
      ],
      "name": "NewTaskCreated",
      "type": "event"
    },
    {
      "anonymous": false,
      "inputs": [
        {
          "indexed": true,
          "internalType": "address",
          "name": "previousOwner",
          "type": "address"
        },
        {
          "indexed": true,
          "internalType": "address",
          "name": "newOwner",
          "type": "address"
        }
      ],
      "name": "OwnershipTransferred",
      "type": "event"
    },
    {
      "anonymous": false,
      "inputs": [
        {
          "indexed": false,
          "internalType": "address",
          "name": "prevRewardsInitiator",
          "type": "address"
        },
        {
          "indexed": false,
          "internalType": "address",
          "name": "newRewardsInitiator",
          "type": "address"
        }
      ],
      "name": "RewardsInitiatorUpdated",
      "type": "event"
    },
    {
      "anonymous": false,
      "inputs": [
        {
          "indexed": true,
          "internalType": "uint32",
          "name": "taskIndex",
          "type": "uint32"
        },
        {
          "components": [
            {
              "internalType": "string",
              "name": "name",
              "type": "string"
            },
            {
              "internalType": "uint32",
              "name": "taskCreatedBlock",
              "type": "uint32"
            }
          ],
          "indexed": false,
          "internalType": "struct IAgentAVS.Task",
          "name": "task",
          "type": "tuple"
        },
        {
          "indexed": false,
          "internalType": "address",
          "name": "operator",
          "type": "address"
        }
      ],
      "name": "TaskResponded",
      "type": "event"
    },
    {
      "inputs": [
        {
          "internalType": "uint32",
          "name": "",
          "type": "uint32"
        }
      ],
      "name": "allTaskHashes",
      "outputs": [
        {
          "internalType": "bytes32",
          "name": "",
          "type": "bytes32"
        }
      ],
      "stateMutability": "view",
      "type": "function"
    },
    {
      "inputs": [
        {
          "internalType": "address",
          "name": "",
          "type": "address"
        },
        {
          "internalType": "uint32",
          "name": "",
          "type": "uint32"
        }
      ],
      "name": "allTaskResponses",
      "outputs": [
        {
          "internalType": "bytes",
          "name": "",
          "type": "bytes"
        }
      ],
      "stateMutability": "view",
      "type": "function"
    },
    {
      "inputs": [],
      "name": "avsDirectory",
      "outputs": [
        {
          "internalType": "address",
          "name": "",
          "type": "address"
        }
      ],
      "stateMutability": "view",
      "type": "function"
    },
    {
      "inputs": [
        {
          "components": [
            {
              "components": [
                {
                  "internalType": "contract IStrategy",
                  "name": "strategy",
                  "type": "address"
                },
                {
                  "internalType": "uint96",
                  "name": "multiplier",
                  "type": "uint96"
                }
              ],
              "internalType": "struct IRewardsCoordinator.StrategyAndMultiplier[]",
              "name": "strategiesAndMultipliers",
              "type": "tuple[]"
            },
            {
              "internalType": "contract IERC20",
              "name": "token",
              "type": "address"
            },
            {
              "internalType": "uint256",
              "name": "amount",
              "type": "uint256"
            },
            {
              "internalType": "uint32",
              "name": "startTimestamp",
              "type": "uint32"
            },
            {
              "internalType": "uint32",
              "name": "duration",
              "type": "uint32"
            }
          ],
          "internalType": "struct IRewardsCoordinator.RewardsSubmission[]",
          "name": "rewardsSubmissions",
          "type": "tuple[]"
        }
      ],
      "name": "createAVSRewardsSubmission",
      "outputs": [],
      "stateMutability": "nonpayable",
      "type": "function"
    },
    {
      "inputs": [
        {
          "internalType": "string",
          "name": "name",
          "type": "string"
        }
      ],
      "name": "createNewTask",
      "outputs": [
        {
          "components": [
            {
              "internalType": "string",
              "name": "name",
              "type": "string"
            },
            {
              "internalType": "uint32",
              "name": "taskCreatedBlock",
              "type": "uint32"
            }
          ],
          "internalType": "struct IAgentAVS.Task",
          "name": "",
          "type": "tuple"
        }
      ],
      "stateMutability": "nonpayable",
      "type": "function"
    },
    {
      "inputs": [
        {
          "internalType": "address",
          "name": "operator",
          "type": "address"
        }
      ],
      "name": "deregisterOperatorFromAVS",
      "outputs": [],
      "stateMutability": "nonpayable",
      "type": "function"
    },
    {
      "inputs": [
        {
          "internalType": "address",
          "name": "_operator",
          "type": "address"
        }
      ],
      "name": "getOperatorRestakedStrategies",
      "outputs": [
        {
          "internalType": "address[]",
          "name": "",
          "type": "address[]"
        }
      ],
      "stateMutability": "view",
      "type": "function"
    },
    {
      "inputs": [],
      "name": "getRestakeableStrategies",
      "outputs": [
        {
          "internalType": "address[]",
          "name": "",
          "type": "address[]"
        }
      ],
      "stateMutability": "view",
      "type": "function"
    },
    {
      "inputs": [
        {
          "internalType": "address",
          "name": "initialOwner",
          "type": "address"
        },
        {
          "internalType": "address",
          "name": "_rewardsInitiator",
          "type": "address"
        }
      ],
      "name": "initialize",
      "outputs": [],
      "stateMutability": "nonpayable",
      "type": "function"
    },
    {
      "inputs": [],
      "name": "latestTaskNum",
      "outputs": [
        {
          "internalType": "uint32",
          "name": "",
          "type": "uint32"
        }
      ],
      "stateMutability": "view",
      "type": "function"
    },
    {
      "inputs": [],
      "name": "owner",
      "outputs": [
        {
          "internalType": "address",
          "name": "",
          "type": "address"
        }
      ],
      "stateMutability": "view",
      "type": "function"
    },
    {
      "inputs": [
        {
          "internalType": "address",
          "name": "operator",
          "type": "address"
        },
        {
          "components": [
            {
              "internalType": "bytes",
              "name": "signature",
              "type": "bytes"
            },
            {
              "internalType": "bytes32",
              "name": "salt",
              "type": "bytes32"
            },
            {
              "internalType": "uint256",
              "name": "expiry",
              "type": "uint256"
            }
          ],
          "internalType": "struct ISignatureUtils.SignatureWithSaltAndExpiry",
          "name": "operatorSignature",
          "type": "tuple"
        }
      ],
      "name": "registerOperatorToAVS",
      "outputs": [],
      "stateMutability": "nonpayable",
      "type": "function"
    },
    {
      "inputs": [],
      "name": "renounceOwnership",
      "outputs": [],
      "stateMutability": "nonpayable",
      "type": "function"
    },
    {
      "inputs": [
        {
          "components": [
            {
              "internalType": "string",
              "name": "name",
              "type": "string"
            },
            {
              "internalType": "uint32",
              "name": "taskCreatedBlock",
              "type": "uint32"
            }
          ],
          "internalType": "struct IAgentAVS.Task",
          "name": "task",
          "type": "tuple"
        },
        {
          "internalType": "uint32",
          "name": "referenceTaskIndex",
          "type": "uint32"
        },
        {
          "internalType": "bytes",
          "name": "signature",
          "type": "bytes"
        }
      ],
      "name": "respondToTask",
      "outputs": [],
      "stateMutability": "nonpayable",
      "type": "function"
    },
    {
      "inputs": [],
      "name": "rewardsInitiator",
      "outputs": [
        {
          "internalType": "address",
          "name": "",
          "type": "address"
        }
      ],
      "stateMutability": "view",
      "type": "function"
    },
    {
      "inputs": [
        {
          "internalType": "address",
          "name": "newRewardsInitiator",
          "type": "address"
        }
      ],
      "name": "setRewardsInitiator",
      "outputs": [],
      "stateMutability": "nonpayable",
      "type": "function"
    },
    {
      "inputs": [],
      "name": "stakeRegistry",
      "outputs": [
        {
          "internalType": "address",
          "name": "",
          "type": "address"
        }
      ],
      "stateMutability": "view",
      "type": "function"
    },
    {
      "inputs": [
        {
          "internalType": "address",
          "name": "newOwner",
          "type": "address"
        }
      ],
      "name": "transferOwnership",
      "outputs": [],
      "stateMutability": "nonpayable",
      "type": "function"
    },
    {
      "inputs": [
        {
          "internalType": "string",
          "name": "_metadataURI",
          "type": "string"
        }
      ],
      "name": "updateAVSMetadataURI",
      "outputs": [],
      "stateMutability": "nonpayable",
      "type": "function"
    }
  ],
  "bytecode": "0x61010060405234801561001157600080fd5b50604051613f58380380613f5883398181016040528101906100339190610246565b838383838373ffffffffffffffffffffffffffffffffffffffff1660a08173ffffffffffffffffffffffffffffffffffffffff16815250508273ffffffffffffffffffffffffffffffffffffffff1660808173ffffffffffffffffffffffffffffffffffffffff16815250508173ffffffffffffffffffffffffffffffffffffffff1660c08173ffffffffffffffffffffffffffffffffffffffff16815250508073ffffffffffffffffffffffffffffffffffffffff1660e08173ffffffffffffffffffffffffffffffffffffffff168152505061011561012260201b60201c565b5050505050505050610387565b600060019054906101000a900460ff1615610172576040517f08c379a000000000000000000000000000000000000000000000000000000000815260040161016990610330565b60405180910390fd5b60ff801660008054906101000a900460ff1660ff1610156101e15760ff6000806101000a81548160ff021916908360ff1602179055507f7f26b83ff96e1f2b6a682f133852f6798a09c465da95921460cefb384740249860ff6040516101d8919061036c565b60405180910390a15b565b600080fd5b600073ffffffffffffffffffffffffffffffffffffffff82169050919050565b6000610213826101e8565b9050919050565b61022381610208565b811461022e57600080fd5b50565b6000815190506102408161021a565b92915050565b600080600080608085870312156102605761025f6101e3565b5b600061026e87828801610231565b945050602061027f87828801610231565b935050604061029087828801610231565b92505060606102a187828801610231565b91505092959194509250565b600082825260208201905092915050565b7f496e697469616c697a61626c653a20636f6e747261637420697320696e69746960008201527f616c697a696e6700000000000000000000000000000000000000000000000000602082015250565b600061031a6027836102ad565b9150610325826102be565b604082019050919050565b600060208201905081810360008301526103498161030d565b9050919050565b600060ff82169050919050565b61036681610350565b82525050565b6000602082019050610381600083018461035d565b92915050565b60805160a05160c05160e051613b526104066000396000610e250152600081816117c601528181611899015261195c015260008181610847015281816112c30152818161135401526113e201526000818161053601528181610823015281816109e401528181610a8001528181610cad01526114740152613b526000f3fe608060405234801561001057600080fd5b50600436106101215760003560e01c80638b00ce7c116100ad578063c20bab7f11610071578063c20bab7f146102e0578063e481af9d14610310578063f2fde38b1461032e578063fc299dee1461034a578063fce36c7d1461036857610121565b80638b00ce7c146102505780638da5cb5b1461026e5780639926ee7d1461028c578063a364f4da146102a8578063a98fb355146102c457610121565b8063485cc955116100f4578063485cc955146101be57806368304835146101da5780636b3aa72e146101f8578063715018a61461021657806385edf8741461022057610121565b80632d89f6fc1461012657806333cfb7b7146101565780633415a49c146101865780633bc28c8c146101a2575b600080fd5b610140600480360381019061013b9190611a63565b610384565b60405161014d9190611aa9565b60405180910390f35b610170600480360381019061016b9190611b22565b61039c565b60405161017d9190611c0d565b60405180910390f35b6101a0600480360381019061019b9190611d99565b6103ae565b005b6101bc60048036038101906101b79190611b22565b6106cb565b005b6101d860048036038101906101d39190611e24565b6106df565b005b6101e2610821565b6040516101ef9190611e73565b60405180910390f35b610200610845565b60405161020d9190611e73565b60405180910390f35b61021e610869565b005b61023a60048036038101906102359190611f2f565b61087d565b6040516102479190612043565b60405180910390f35b6102586109a2565b6040516102659190612074565b60405180910390f35b6102766109b8565b6040516102839190611e73565b60405180910390f35b6102a660048036038101906102a1919061217b565b6109e2565b005b6102c260048036038101906102bd9190611b22565b610a7e565b005b6102de60048036038101906102d99190611f2f565b610b18565b005b6102fa60048036038101906102f591906121d7565b610b2c565b604051610307919061226c565b60405180910390f35b610318610bd9565b6040516103259190611c0d565b60405180910390f35b61034860048036038101906103439190611b22565b610be8565b005b610352610c6b565b60405161035f9190611e73565b60405180910390f35b610382600480360381019061037d91906122ee565b610c91565b005b60986020528060005260406000206000915090505481565b60606103a782610ca7565b9050919050565b609860008363ffffffff1663ffffffff16815260200190815260200160002054836040516020016103df9190612440565b6040516020818303038152906040528051906020012014610435576040517f08c379a000000000000000000000000000000000000000000000000000000000815260040161042c906124e5565b60405180910390fd5b6000609960003373ffffffffffffffffffffffffffffffffffffffff1673ffffffffffffffffffffffffffffffffffffffff16815260200190815260200160002060008463ffffffff1663ffffffff168152602001908152602001600020805461049e90612534565b9050146104e0576040517f08c379a00000000000000000000000000000000000000000000000000000000081526004016104d7906125d7565b60405180910390fd5b60008380600001906104f29190612606565b6040516020016105039291906126e5565b604051602081830303815290604052805190602001209050600061052682611026565b90506000631626ba7e60e01b90507f000000000000000000000000000000000000000000000000000000000000000073ffffffffffffffffffffffffffffffffffffffff16631626ba7e83866040518363ffffffff1660e01b815260040161058f929190612709565b602060405180830381865afa1580156105ac573d6000803e3d6000fd5b505050506040513d601f19601f820116820180604052508101906105d09190612791565b7bffffffffffffffffffffffffffffffffffffffffffffffffffffffff1916817bffffffffffffffffffffffffffffffffffffffffffffffffffffffff19161461061957600080fd5b83609960003373ffffffffffffffffffffffffffffffffffffffff1673ffffffffffffffffffffffffffffffffffffffff16815260200190815260200160002060008763ffffffff1663ffffffff1681526020019081526020016000209081610682919061296a565b508463ffffffff167f8eb2d2fcccf5801e10ff58cd73e8781ba923122963789378771f03c1148b023e87336040516106bb929190612a3c565b60405180910390a2505050505050565b6106d3611056565b6106dc816110d4565b50565b60008060019054906101000a900460ff161590508080156107105750600160008054906101000a900460ff1660ff16105b8061073d575061071f30611173565b15801561073c5750600160008054906101000a900460ff1660ff16145b5b61077c576040517f08c379a000000000000000000000000000000000000000000000000000000000815260040161077390612ade565b60405180910390fd5b60016000806101000a81548160ff021916908360ff16021790555080156107b9576001600060016101000a81548160ff0219169083151502179055505b6107c38383611196565b801561081c5760008060016101000a81548160ff0219169083151502179055507f7f26b83ff96e1f2b6a682f133852f6798a09c465da95921460cefb384740249860016040516108139190612b46565b60405180910390a15b505050565b7f000000000000000000000000000000000000000000000000000000000000000081565b7f000000000000000000000000000000000000000000000000000000000000000081565b610871611056565b61087b60006111fb565b565b6108856119f3565b61088d6119f3565b82816000018190525043816020019063ffffffff16908163ffffffff1681525050806040516020016108bf9190612043565b6040516020818303038152906040528051906020012060986000609760009054906101000a900463ffffffff1663ffffffff1663ffffffff16815260200190815260200160002081905550609760009054906101000a900463ffffffff1663ffffffff167f58180a6a0403a63c2b5ce4b85d129d46a80d37851b2216bd0a98b59e7309b847826040516109529190612043565b60405180910390a26001609760009054906101000a900463ffffffff166109799190612b90565b609760006101000a81548163ffffffff021916908363ffffffff16021790555080915050919050565b609760009054906101000a900463ffffffff1681565b6000603360009054906101000a900473ffffffffffffffffffffffffffffffffffffffff16905090565b7f000000000000000000000000000000000000000000000000000000000000000073ffffffffffffffffffffffffffffffffffffffff163373ffffffffffffffffffffffffffffffffffffffff1614610a70576040517f08c379a0000000000000000000000000000000000000000000000000000000008152600401610a6790612c60565b60405180910390fd5b610a7a82826112c1565b5050565b7f000000000000000000000000000000000000000000000000000000000000000073ffffffffffffffffffffffffffffffffffffffff163373ffffffffffffffffffffffffffffffffffffffff1614610b0c576040517f08c379a0000000000000000000000000000000000000000000000000000000008152600401610b0390612c60565b60405180910390fd5b610b1581611352565b50565b610b20611056565b610b29816113e0565b50565b6099602052816000526040600020602052806000526040600020600091509150508054610b5890612534565b80601f0160208091040260200160405190810160405280929190818152602001828054610b8490612534565b8015610bd15780601f10610ba657610100808354040283529160200191610bd1565b820191906000526020600020905b815481529060010190602001808311610bb457829003601f168201915b505050505081565b6060610be361146e565b905090565b610bf0611056565b600073ffffffffffffffffffffffffffffffffffffffff168173ffffffffffffffffffffffffffffffffffffffff1603610c5f576040517f08c379a0000000000000000000000000000000000000000000000000000000008152600401610c5690612cf2565b60405180910390fd5b610c68816111fb565b50565b606560009054906101000a900473ffffffffffffffffffffffffffffffffffffffff1681565b610c996115f0565b610ca38282611682565b5050565b606060007f000000000000000000000000000000000000000000000000000000000000000073ffffffffffffffffffffffffffffffffffffffff16631703a0186040518163ffffffff1660e01b8152600401600060405180830381865afa158015610d16573d6000803e3d6000fd5b505050506040513d6000823e3d601f19601f82011682018060405250810190610d3f9190612eff565b90506000816000015151905060008167ffffffffffffffff811115610d6757610d66611c6e565b5b604051908082528060200260200182016040528015610d955781602001602082028036833780820191505090505b50905060005b82811015610e205783600001518181518110610dba57610db9612f48565b5b602002602001015160000151828281518110610dd957610dd8612f48565b5b602002602001019073ffffffffffffffffffffffffffffffffffffffff16908173ffffffffffffffffffffffffffffffffffffffff16815250508080600101915050610d9b565b5060007f000000000000000000000000000000000000000000000000000000000000000073ffffffffffffffffffffffffffffffffffffffff16639004134787846040518363ffffffff1660e01b8152600401610e7e92919061306a565b600060405180830381865afa158015610e9b573d6000803e3d6000fd5b505050506040513d6000823e3d601f19601f82011682018060405250810190610ec49190613172565b90506000805b84811015610f11576000838281518110610ee757610ee6612f48565b5b60200260200101511115610f04578180610f00906131bb565b9250505b8080600101915050610eca565b5060008167ffffffffffffffff811115610f2e57610f2d611c6e565b5b604051908082528060200260200182016040528015610f5c5781602001602082028036833780820191505090505b509050600080600090505b86811015611016576000858281518110610f8457610f83612f48565b5b6020026020010151111561100957858181518110610fa557610fa4612f48565b5b6020026020010151838381518110610fc057610fbf612f48565b5b602002602001019073ffffffffffffffffffffffffffffffffffffffff16908173ffffffffffffffffffffffffffffffffffffffff16815250508180611005906131bb565b9250505b8080600101915050610f67565b5081975050505050505050919050565b6000816040516020016110399190613270565b604051602081830303815290604052805190602001209050919050565b61105e6119eb565b73ffffffffffffffffffffffffffffffffffffffff1661107c6109b8565b73ffffffffffffffffffffffffffffffffffffffff16146110d2576040517f08c379a00000000000000000000000000000000000000000000000000000000081526004016110c9906132e2565b60405180910390fd5b565b7fe11cddf1816a43318ca175bbc52cd0185436e9cbead7c83acc54a73e461717e3606560009054906101000a900473ffffffffffffffffffffffffffffffffffffffff1682604051611127929190613302565b60405180910390a180606560006101000a81548173ffffffffffffffffffffffffffffffffffffffff021916908373ffffffffffffffffffffffffffffffffffffffff16021790555050565b6000808273ffffffffffffffffffffffffffffffffffffffff163b119050919050565b600060019054906101000a900460ff166111e5576040517f08c379a00000000000000000000000000000000000000000000000000000000081526004016111dc9061339d565b60405180910390fd5b6111ee826111fb565b6111f7816110d4565b5050565b6000603360009054906101000a900473ffffffffffffffffffffffffffffffffffffffff16905081603360006101000a81548173ffffffffffffffffffffffffffffffffffffffff021916908373ffffffffffffffffffffffffffffffffffffffff1602179055508173ffffffffffffffffffffffffffffffffffffffff168173ffffffffffffffffffffffffffffffffffffffff167f8be0079c531659141344cd1fd0a4f28419497f9722a3daafe3b4186f6b6457e060405160405180910390a35050565b7f000000000000000000000000000000000000000000000000000000000000000073ffffffffffffffffffffffffffffffffffffffff16639926ee7d83836040518363ffffffff1660e01b815260040161131c929190613475565b600060405180830381600087803b15801561133657600080fd5b505af115801561134a573d6000803e3d6000fd5b505050505050565b7f000000000000000000000000000000000000000000000000000000000000000073ffffffffffffffffffffffffffffffffffffffff1663a364f4da826040518263ffffffff1660e01b81526004016113ab9190611e73565b600060405180830381600087803b1580156113c557600080fd5b505af11580156113d9573d6000803e3d6000fd5b5050505050565b7f000000000000000000000000000000000000000000000000000000000000000073ffffffffffffffffffffffffffffffffffffffff1663a98fb355826040518263ffffffff1660e01b815260040161143991906134de565b600060405180830381600087803b15801561145357600080fd5b505af1158015611467573d6000803e3d6000fd5b5050505050565b606060007f000000000000000000000000000000000000000000000000000000000000000073ffffffffffffffffffffffffffffffffffffffff16631703a0186040518163ffffffff1660e01b8152600401600060405180830381865afa1580156114dd573d6000803e3d6000fd5b505050506040513d6000823e3d601f19601f820116820180604052508101906115069190612eff565b9050600081600001515167ffffffffffffffff81111561152957611528611c6e565b5b6040519080825280602002602001820160405280156115575781602001602082028036833780820191505090505b50905060005b8260000151518110156115e7578260000151818151811061158157611580612f48565b5b6020026020010151600001518282815181106115a05761159f612f48565b5b602002602001019073ffffffffffffffffffffffffffffffffffffffff16908173ffffffffffffffffffffffffffffffffffffffff1681525050808060010191505061155d565b50809250505090565b606560009054906101000a900473ffffffffffffffffffffffffffffffffffffffff1673ffffffffffffffffffffffffffffffffffffffff163373ffffffffffffffffffffffffffffffffffffffff1614611680576040517f08c379a000000000000000000000000000000000000000000000000000000000815260040161167790613598565b60405180910390fd5b565b60005b82829050811015611959578282828181106116a3576116a2612f48565b5b90506020028101906116b591906135b8565b60200160208101906116c7919061361e565b73ffffffffffffffffffffffffffffffffffffffff166323b872dd33308686868181106116f7576116f6612f48565b5b905060200281019061170991906135b8565b604001356040518463ffffffff1660e01b815260040161172b9392919061365a565b6020604051808303816000875af115801561174a573d6000803e3d6000fd5b505050506040513d601f19601f8201168201806040525081019061176e91906136c9565b50600083838381811061178457611783612f48565b5b905060200281019061179691906135b8565b60200160208101906117a8919061361e565b73ffffffffffffffffffffffffffffffffffffffff1663dd62ed3e307f00000000000000000000000000000000000000000000000000000000000000006040518363ffffffff1660e01b8152600401611802929190613302565b602060405180830381865afa15801561181f573d6000803e3d6000fd5b505050506040513d601f19601f8201168201806040525081019061184391906136f6565b905083838381811061185857611857612f48565b5b905060200281019061186a91906135b8565b602001602081019061187c919061361e565b73ffffffffffffffffffffffffffffffffffffffff1663095ea7b37f0000000000000000000000000000000000000000000000000000000000000000838787878181106118cc576118cb612f48565b5b90506020028101906118de91906135b8565b604001356118ec9190613723565b6040518363ffffffff1660e01b8152600401611909929190613757565b6020604051808303816000875af1158015611928573d6000803e3d6000fd5b505050506040513d601f19601f8201168201806040525081019061194c91906136c9565b5050806001019050611685565b507f000000000000000000000000000000000000000000000000000000000000000073ffffffffffffffffffffffffffffffffffffffff1663fce36c7d83836040518363ffffffff1660e01b81526004016119b5929190613af8565b600060405180830381600087803b1580156119cf57600080fd5b505af11580156119e3573d6000803e3d6000fd5b505050505050565b600033905090565b604051806040016040528060608152602001600063ffffffff1681525090565b6000604051905090565b600080fd5b600080fd5b600063ffffffff82169050919050565b611a4081611a27565b8114611a4b57600080fd5b50565b600081359050611a5d81611a37565b92915050565b600060208284031215611a7957611a78611a1d565b5b6000611a8784828501611a4e565b91505092915050565b6000819050919050565b611aa381611a90565b82525050565b6000602082019050611abe6000830184611a9a565b92915050565b600073ffffffffffffffffffffffffffffffffffffffff82169050919050565b6000611aef82611ac4565b9050919050565b611aff81611ae4565b8114611b0a57600080fd5b50565b600081359050611b1c81611af6565b92915050565b600060208284031215611b3857611b37611a1d565b5b6000611b4684828501611b0d565b91505092915050565b600081519050919050565b600082825260208201905092915050565b6000819050602082019050919050565b611b8481611ae4565b82525050565b6000611b968383611b7b565b60208301905092915050565b6000602082019050919050565b6000611bba82611b4f565b611bc48185611b5a565b9350611bcf83611b6b565b8060005b83811015611c00578151611be78882611b8a565b9750611bf283611ba2565b925050600181019050611bd3565b5085935050505092915050565b60006020820190508181036000830152611c278184611baf565b905092915050565b600080fd5b600060408284031215611c4a57611c49611c2f565b5b81905092915050565b600080fd5b600080fd5b6000601f19601f8301169050919050565b7f4e487b7100000000000000000000000000000000000000000000000000000000600052604160045260246000fd5b611ca682611c5d565b810181811067ffffffffffffffff82111715611cc557611cc4611c6e565b5b80604052505050565b6000611cd8611a13565b9050611ce48282611c9d565b919050565b600067ffffffffffffffff821115611d0457611d03611c6e565b5b611d0d82611c5d565b9050602081019050919050565b82818337600083830152505050565b6000611d3c611d3784611ce9565b611cce565b905082815260208101848484011115611d5857611d57611c58565b5b611d63848285611d1a565b509392505050565b600082601f830112611d8057611d7f611c53565b5b8135611d90848260208601611d29565b91505092915050565b600080600060608486031215611db257611db1611a1d565b5b600084013567ffffffffffffffff811115611dd057611dcf611a22565b5b611ddc86828701611c34565b9350506020611ded86828701611a4e565b925050604084013567ffffffffffffffff811115611e0e57611e0d611a22565b5b611e1a86828701611d6b565b9150509250925092565b60008060408385031215611e3b57611e3a611a1d565b5b6000611e4985828601611b0d565b9250506020611e5a85828601611b0d565b9150509250929050565b611e6d81611ae4565b82525050565b6000602082019050611e886000830184611e64565b92915050565b600067ffffffffffffffff821115611ea957611ea8611c6e565b5b611eb282611c5d565b9050602081019050919050565b6000611ed2611ecd84611e8e565b611cce565b905082815260208101848484011115611eee57611eed611c58565b5b611ef9848285611d1a565b509392505050565b600082601f830112611f1657611f15611c53565b5b8135611f26848260208601611ebf565b91505092915050565b600060208284031215611f4557611f44611a1d565b5b600082013567ffffffffffffffff811115611f6357611f62611a22565b5b611f6f84828501611f01565b91505092915050565b600081519050919050565b600082825260208201905092915050565b60005b83811015611fb2578082015181840152602081019050611f97565b60008484015250505050565b6000611fc982611f78565b611fd38185611f83565b9350611fe3818560208601611f94565b611fec81611c5d565b840191505092915050565b61200081611a27565b82525050565b600060408301600083015184820360008601526120238282611fbe565b91505060208301516120386020860182611ff7565b508091505092915050565b6000602082019050818103600083015261205d8184612006565b905092915050565b61206e81611a27565b82525050565b60006020820190506120896000830184612065565b92915050565b600080fd5b600080fd5b6120a281611a90565b81146120ad57600080fd5b50565b6000813590506120bf81612099565b92915050565b6000819050919050565b6120d8816120c5565b81146120e357600080fd5b50565b6000813590506120f5816120cf565b92915050565b6000606082840312156121115761211061208f565b5b61211b6060611cce565b9050600082013567ffffffffffffffff81111561213b5761213a612094565b5b61214784828501611d6b565b600083015250602061215b848285016120b0565b602083015250604061216f848285016120e6565b60408301525092915050565b6000806040838503121561219257612191611a1d565b5b60006121a085828601611b0d565b925050602083013567ffffffffffffffff8111156121c1576121c0611a22565b5b6121cd858286016120fb565b9150509250929050565b600080604083850312156121ee576121ed611a1d565b5b60006121fc85828601611b0d565b925050602061220d85828601611a4e565b9150509250929050565b600081519050919050565b600082825260208201905092915050565b600061223e82612217565b6122488185612222565b9350612258818560208601611f94565b61226181611c5d565b840191505092915050565b600060208201905081810360008301526122868184612233565b905092915050565b600080fd5b600080fd5b60008083601f8401126122ae576122ad611c53565b5b8235905067ffffffffffffffff8111156122cb576122ca61228e565b5b6020830191508360208202830111156122e7576122e6612293565b5b9250929050565b6000806020838503121561230557612304611a1d565b5b600083013567ffffffffffffffff81111561232357612322611a22565b5b61232f85828601612298565b92509250509250929050565b600080fd5b600080fd5b600080fd5b6000808335600160200384360303811261236757612366612345565b5b83810192508235915060208301925067ffffffffffffffff82111561238f5761238e61233b565b5b6001820236038313156123a5576123a4612340565b5b509250929050565b60006123b98385611f83565b93506123c6838584611d1a565b6123cf83611c5d565b840190509392505050565b60006123e96020840184611a4e565b905092915050565b600060408301612404600084018461234a565b85830360008701526124178382846123ad565b9250505061242860208401846123da565b6124356020860182611ff7565b508091505092915050565b6000602082019050818103600083015261245a81846123f1565b905092915050565b600082825260208201905092915050565b7f737570706c696564207461736b20646f6573206e6f74206d617463682074686560008201527f206f6e65207265636f7264656420696e2074686520636f6e7472616374000000602082015250565b60006124cf603d83612462565b91506124da82612473565b604082019050919050565b600060208201905081810360008301526124fe816124c2565b9050919050565b7f4e487b7100000000000000000000000000000000000000000000000000000000600052602260045260246000fd5b6000600282049050600182168061254c57607f821691505b60208210810361255f5761255e612505565b5b50919050565b7f4f70657261746f722068617320616c726561647920726573706f6e646564207460008201527f6f20746865207461736b00000000000000000000000000000000000000000000602082015250565b60006125c1602a83612462565b91506125cc82612565565b604082019050919050565b600060208201905081810360008301526125f0816125b4565b9050919050565b600080fd5b600080fd5b600080fd5b60008083356001602003843603038112612623576126226125f7565b5b80840192508235915067ffffffffffffffff821115612645576126446125fc565b5b60208301925060018202360383131561266157612660612601565b5b509250929050565b600081905092915050565b7f4156530000000000000000000000000000000000000000000000000000000000600082015250565b60006126aa600383612669565b91506126b582612674565b600382019050919050565b60006126cc8385612669565b93506126d9838584611d1a565b82840190509392505050565b60006126f08261269d565b91506126fd8284866126c0565b91508190509392505050565b600060408201905061271e6000830185611a9a565b81810360208301526127308184612233565b90509392505050565b60007fffffffff0000000000000000000000000000000000000000000000000000000082169050919050565b61276e81612739565b811461277957600080fd5b50565b60008151905061278b81612765565b92915050565b6000602082840312156127a7576127a6611a1d565b5b60006127b58482850161277c565b91505092915050565b60008190508160005260206000209050919050565b60006020601f8301049050919050565b600082821b905092915050565b6000600883026128207fffffffffffffffffffffffffffffffffffffffffffffffffffffffffffffffff826127e3565b61282a86836127e3565b95508019841693508086168417925050509392505050565b6000819050919050565b600061286761286261285d846120c5565b612842565b6120c5565b9050919050565b6000819050919050565b6128818361284c565b61289561288d8261286e565b8484546127f0565b825550505050565b600090565b6128aa61289d565b6128b5818484612878565b505050565b5b818110156128d9576128ce6000826128a2565b6001810190506128bb565b5050565b601f82111561291e576128ef816127be565b6128f8846127d3565b81016020851015612907578190505b61291b612913856127d3565b8301826128ba565b50505b505050565b600082821c905092915050565b600061294160001984600802612923565b1980831691505092915050565b600061295a8383612930565b9150826002028217905092915050565b61297382612217565b67ffffffffffffffff81111561298c5761298b611c6e565b5b6129968254612534565b6129a18282856128dd565b600060209050601f8311600181146129d457600084156129c2578287015190505b6129cc858261294e565b865550612a34565b601f1984166129e2866127be565b60005b82811015612a0a578489015182556001820191506020850194506020810190506129e5565b86831015612a275784890151612a23601f891682612930565b8355505b6001600288020188555050505b505050505050565b60006040820190508181036000830152612a5681856123f1565b9050612a656020830184611e64565b9392505050565b7f496e697469616c697a61626c653a20636f6e747261637420697320616c72656160008201527f647920696e697469616c697a6564000000000000000000000000000000000000602082015250565b6000612ac8602e83612462565b9150612ad382612a6c565b604082019050919050565b60006020820190508181036000830152612af781612abb565b9050919050565b6000819050919050565b600060ff82169050919050565b6000612b30612b2b612b2684612afe565b612842565b612b08565b9050919050565b612b4081612b15565b82525050565b6000602082019050612b5b6000830184612b37565b92915050565b7f4e487b7100000000000000000000000000000000000000000000000000000000600052601160045260246000fd5b6000612b9b82611a27565b9150612ba683611a27565b9250828201905063ffffffff811115612bc257612bc1612b61565b5b92915050565b7f4543445341536572766963654d616e61676572426173652e6f6e6c795374616b60008201527f6552656769737472793a2063616c6c6572206973206e6f74207468652073746160208201527f6b65526567697374727900000000000000000000000000000000000000000000604082015250565b6000612c4a604a83612462565b9150612c5582612bc8565b606082019050919050565b60006020820190508181036000830152612c7981612c3d565b9050919050565b7f4f776e61626c653a206e6577206f776e657220697320746865207a65726f206160008201527f6464726573730000000000000000000000000000000000000000000000000000602082015250565b6000612cdc602683612462565b9150612ce782612c80565b604082019050919050565b60006020820190508181036000830152612d0b81612ccf565b9050919050565b600067ffffffffffffffff821115612d2d57612d2c611c6e565b5b602082029050602081019050919050565b6000612d4982611ae4565b9050919050565b612d5981612d3e565b8114612d6457600080fd5b50565b600081519050612d7681612d50565b92915050565b60006bffffffffffffffffffffffff82169050919050565b612d9d81612d7c565b8114612da857600080fd5b50565b600081519050612dba81612d94565b92915050565b600060408284031215612dd657612dd561208f565b5b612de06040611cce565b90506000612df084828501612d67565b6000830152506020612e0484828501612dab565b60208301525092915050565b6000612e23612e1e84612d12565b611cce565b90508083825260208201905060408402830185811115612e4657612e45612293565b5b835b81811015612e6f5780612e5b8882612dc0565b845260208401935050604081019050612e48565b5050509392505050565b600082601f830112612e8e57612e8d611c53565b5b8151612e9e848260208601612e10565b91505092915050565b600060208284031215612ebd57612ebc61208f565b5b612ec76020611cce565b9050600082015167ffffffffffffffff811115612ee757612ee6612094565b5b612ef384828501612e79565b60008301525092915050565b600060208284031215612f1557612f14611a1d565b5b600082015167ffffffffffffffff811115612f3357612f32611a22565b5b612f3f84828501612ea7565b91505092915050565b7f4e487b7100000000000000000000000000000000000000000000000000000000600052603260045260246000fd5b600081519050919050565b6000819050602082019050919050565b6000612fad612fa8612fa384611ac4565b612842565b611ac4565b9050919050565b6000612fbf82612f92565b9050919050565b6000612fd182612fb4565b9050919050565b612fe181612fc6565b82525050565b6000612ff38383612fd8565b60208301905092915050565b6000602082019050919050565b600061301782612f77565b6130218185611b5a565b935061302c83612f82565b8060005b8381101561305d5781516130448882612fe7565b975061304f83612fff565b925050600181019050613030565b5085935050505092915050565b600060408201905061307f6000830185611e64565b8181036020830152613091818461300c565b90509392505050565b600067ffffffffffffffff8211156130b5576130b4611c6e565b5b602082029050602081019050919050565b6000815190506130d5816120cf565b92915050565b60006130ee6130e98461309a565b611cce565b9050808382526020820190506020840283018581111561311157613110612293565b5b835b8181101561313a578061312688826130c6565b845260208401935050602081019050613113565b5050509392505050565b600082601f83011261315957613158611c53565b5b81516131698482602086016130db565b91505092915050565b60006020828403121561318857613187611a1d565b5b600082015167ffffffffffffffff8111156131a6576131a5611a22565b5b6131b284828501613144565b91505092915050565b60006131c6826120c5565b91507fffffffffffffffffffffffffffffffffffffffffffffffffffffffffffffffff82036131f8576131f7612b61565b5b600182019050919050565b7f19457468657265756d205369676e6564204d6573736167653a0a333200000000600082015250565b6000613239601c83612669565b915061324482613203565b601c82019050919050565b6000819050919050565b61326a61326582611a90565b61324f565b82525050565b600061327b8261322c565b91506132878284613259565b60208201915081905092915050565b7f4f776e61626c653a2063616c6c6572206973206e6f7420746865206f776e6572600082015250565b60006132cc602083612462565b91506132d782613296565b602082019050919050565b600060208201905081810360008301526132fb816132bf565b9050919050565b60006040820190506133176000830185611e64565b6133246020830184611e64565b9392505050565b7f496e697469616c697a61626c653a20636f6e7472616374206973206e6f74206960008201527f6e697469616c697a696e67000000000000000000000000000000000000000000602082015250565b6000613387602b83612462565b91506133928261332b565b604082019050919050565b600060208201905081810360008301526133b68161337a565b9050919050565b600082825260208201905092915050565b60006133d982612217565b6133e381856133bd565b93506133f3818560208601611f94565b6133fc81611c5d565b840191505092915050565b61341081611a90565b82525050565b61341f816120c5565b82525050565b6000606083016000830151848203600086015261344282826133ce565b91505060208301516134576020860182613407565b50604083015161346a6040860182613416565b508091505092915050565b600060408201905061348a6000830185611e64565b818103602083015261349c8184613425565b90509392505050565b60006134b082611f78565b6134ba8185612462565b93506134ca818560208601611f94565b6134d381611c5d565b840191505092915050565b600060208201905081810360008301526134f881846134a5565b905092915050565b7f4543445341536572766963654d616e61676572426173652e6f6e6c795265776160008201527f726473496e69746961746f723a2063616c6c6572206973206e6f74207468652060208201527f7265776172647320696e69746961746f72000000000000000000000000000000604082015250565b6000613582605183612462565b915061358d82613500565b606082019050919050565b600060208201905081810360008301526135b181613575565b9050919050565b60008235600160a0038336030381126135d4576135d36125f7565b5b80830191505092915050565b60006135eb82611ae4565b9050919050565b6135fb816135e0565b811461360657600080fd5b50565b600081359050613618816135f2565b92915050565b60006020828403121561363457613633611a1d565b5b600061364284828501613609565b91505092915050565b613654816120c5565b82525050565b600060608201905061366f6000830186611e64565b61367c6020830185611e64565b613689604083018461364b565b949350505050565b60008115159050919050565b6136a681613691565b81146136b157600080fd5b50565b6000815190506136c38161369d565b92915050565b6000602082840312156136df576136de611a1d565b5b60006136ed848285016136b4565b91505092915050565b60006020828403121561370c5761370b611a1d565b5b600061371a848285016130c6565b91505092915050565b600061372e826120c5565b9150613739836120c5565b925082820190508082111561375157613750612b61565b5b92915050565b600060408201905061376c6000830185611e64565b613779602083018461364b565b9392505050565b600082825260208201905092915050565b6000819050919050565b600080833560016020038436030381126137b8576137b7612345565b5b83810192508235915060208301925067ffffffffffffffff8211156137e0576137df61233b565b5b6040820236038313156137f6576137f5612340565b5b509250929050565b600082825260208201905092915050565b6000819050919050565b60008135905061382881612d50565b92915050565b600061383d6020840184613819565b905092915050565b60008135905061385481612d94565b92915050565b60006138696020840184613845565b905092915050565b61387a81612d7c565b82525050565b60408201613891600083018361382e565b61389e6000850182612fd8565b506138ac602083018361385a565b6138b96020850182613871565b50505050565b60006138cb8383613880565b60408301905092915050565b600082905092915050565b6000604082019050919050565b60006138fb83856137fe565b93506139068261380f565b8060005b8581101561393f5761391c82846138d7565b61392688826138bf565b9750613931836138e2565b92505060018101905061390a565b5085925050509392505050565b600061395b6020840184613609565b905092915050565b600061396e82612fb4565b9050919050565b61397e81613963565b82525050565b600061399360208401846120e6565b905092915050565b600060a083016139ae600084018461379b565b85830360008701526139c18382846138ef565b925050506139d2602084018461394c565b6139df6020860182613975565b506139ed6040840184613984565b6139fa6040860182613416565b50613a0860608401846123da565b613a156060860182611ff7565b50613a2360808401846123da565b613a306080860182611ff7565b508091505092915050565b6000613a47838361399b565b905092915050565b60008235600160a003833603038112613a6b57613a6a612345565b5b82810191505092915050565b6000602082019050919050565b6000613a908385613780565b935083602084028501613aa284613791565b8060005b87811015613ae6578484038952613abd8284613a4f565b613ac78582613a3b565b9450613ad283613a77565b925060208a01995050600181019050613aa6565b50829750879450505050509392505050565b60006020820190508181036000830152613b13818486613a84565b9050939250505056fea264697066735822122041fb67474fb89e522b520637cb1f21e12724578388f70609e709116c1c669c2564736f6c634300081a0033",
  "linkReferences": {},
  "deployedLinkReferences": {}
}